:020000040800F2
:1000000000000524C90B0008ED0A0008EF0A0008EB
:10001000F10A0008F30A0008F50A000800000000D1
:10002000000000000000000000000000F70A0008C7
:10003000F90A000800000000FB0A0008FD0A000899
:10004000190C0008190C0008190C0008190C0008FC
:10005000190C0008190C0008050B0008190C000801
:10006000190C00080F0B0008190B0008190C0008E8
:10007000190C0008190C0008190C0008190C0008CC
:10008000190C0008190C0008190C0008190C0008BC
:10009000190C0008190C0008190C0008190C0008AC
:1000A000190C0008190C0008190C0008190C00089C
:1000B000190C0008190C0008190C0008190C00088C
:1000C000190C0008190C0008190C0008190C00087C
:1000D000190C0008190C0008190C0008190C00086C
:1000E000230B0008190C000800000000190C000880
:1000F000190C0008190C0008190C0008190C00084C
:10010000190C0008190C0008190C0008190C00083B
:10011000190C0008190C0008190C0008190C00082B
:10012000190C0008190C0008190C0008190C00081B
:10013000190C0008190C0008190C0008190C00080B
:1001400000000000000000000000000000000000AF
:10015000190C0008190C0008190C0008190C0008EB
:10016000190C0008190C0008190C0008190C0008DB
:10017000190C0008190C0008190C000800000000F8
:10018000190C0008190C0008190C0008190C0008BB
:10019000190C0008190C0008190C0008190C0008AB
:1001A000190C0008190C0008190C000800000000C8
:1001B000190C0008190C0008190C0008190C00088B
:1001C000190C0008190C00080000000000000000D5
:1001D0000000000000000000190C000800000000F2
:1001E000000000000000000000000000000000000F
:1001F0000000000000000000190C0008190C0008A5
:10020000190C0008190C000800000000190C000867
:10021000190C0008190C0008190C0008190C00082A
:10022000190C000800000000190C00080000000074
:10023000190C0008190C000800000000190C000837
:10024000190C0008190C0008190C0008190C0008FA
:10025000190C0008190C0008190C0008190C0008EA
:10026000190C0008190C0008190C0008190C0008DA
:10027000190C0008190C0008190C000800000000F7
:10028000190C0008190C0008190C0008190C0008BA
:1002900000000000190C0008190C00080000000004
:1002A00000000000190C0008190C0008190C0008C7
:1002B000190C0008190C0008190C0008190C00088A
:0C02C000190C0008190C0008190C0008AB
:1002CC0080F0004002E000BF81F0004142001FBFFF
:1002DC005FEA410392EA030F7FEA226C7FEA236C08
:1002EC006AD04FEA1262D2EB1363C1BFD2184140FD
:1002FC0048404140B8BF5B42192B88BF704710F093
:10030C00004F40F4000020F07F4018BF404211F035
:10031C00004F41F4000121F07F4118BF494292EA9D
:10032C00030F3FD0A2F1010241FA03FC10EB0C00C9
:10033C00C3F1200301FA03F100F0004302D5494256
:10034C0060EB4000B0F5000F13D3B0F1807F06D303
:10035C0040084FEA310102F10102FE2A51D2B1F1FB
:10036C00004F40EBC25008BF20F0010040EA0300F0
:10037C007047490040EB0000013A28BFB0F5000F70
:10038C00EDD2B0FA80FCACF1080CB2EB0C0200FA26
:10039C000CF0AABF00EBC25052421843BCBFD04075
:1003AC001843704792F0000F81F4000106BF80F4EF
:1003BC0000000132013BB5E74FEA41037FEA226CB2
:1003CC0018BF7FEA236C21D092EA030F04D092F07D
:1003DC00000F08BF0846704790EA010F1CBF0020B1
:1003EC00704712F07F4F04D1400028BF40F000400E
:1003FC00704712F100723CBF00F50000704700F02E
:10040C00004343F0FE4040F4000070477FEA226254
:10041C0016BF08467FEA23630146420206BF5FEA25
:10042C00412390EA010F40F4800070474FF0000325
:10043C0004E000BF10F0004348BF40425FEA000CEC
:10044C0008BF704743F0964301464FF000001CE094
:10045C0050EA010208BF70474FF000030AE000BFEA
:10046C0050EA010208BF704711F0004302D5404228
:10047C0061EB41015FEA010C02BF8446014600209A
:10048C0043F0B64308BFA3F18053A3F50003BCFAB5
:10049C008CF2083AA3EBC25310DB01FA02FC634462
:1004AC0000FA02FCC2F12002BCF1004F20FA02F269
:1004BC0043EB020008BF20F00100704702F120025C
:1004CC0001FA02FCC2F1200250EA4C0021FA02F2BD
:1004DC0043EB020008BF20EADC7070474FF0FF0CC2
:1004EC001CEAD0521EBF1CEAD15392EA0C0F93EABD
:1004FC000C0F6FD01A4480EA010C400218BF5FEA5F
:10050C0041211ED04FF0006343EA501043EA5111D1
:10051C00A0FB01310CF00040B1F5000F3EBF4900CB
:10052C0041EAD3715B0040EA010062F17F02FD2ACF
:10053C001DD8B3F1004F40EBC25008BF20F00100B2
:10054C00704790F0000F0CF0004C08BF49024CEAC9
:10055C00502040EA51207F3AC2BFD2F1FF0340EA5B
:10056C00C250704740F400004FF00003013A5DDCCC
:10057C0012F1190FDCBF00F000407047C2F100020D
:10058C00410021FA02F1C2F1200200FA02FC5FEAFA
:10059C00310040F1000053EA4C0308BF20EADC7044
:1005AC00704792F0000F00F0004C02BF400010F4B6
:1005BC00000F013AF9D040EA0C0093F0000F01F063
:1005CC00004C02BF490011F4000F013BF9D041EA85
:1005DC000C018FE70CEAD15392EA0C0F18BF93EA87
:1005EC000C0F0AD030F0004C18BF31F0004CD8D1B1
:1005FC0080EA010000F00040704790F0000F17BF38
:10060C0090F0004F084691F0000F91F0004F14D07D
:10061C0092EA0C0F01D142020FD193EA0C0F03D1D5
:10062C004B0218BF084608D180EA010000F00040D8
:10063C0040F0FE4040F40000704740F0FE4040F4B3
:10064C00400070474FF0FF0C1CEAD0521EBF1CEA52
:10065C00D15392EA0C0F93EA0C0F69D0A2EB030270
:10066C0080EA010C49024FEA402037D04FF080530A
:10067C0043EA111143EA10130CF000408B4238BFCF
:10068C005B0042F17D024FF4000C8B4224BF5B1ADD
:10069C0040EA0C00B3EB510F24BFA3EB510340EA2B
:1006AC005C00B3EB910F24BFA3EB910340EA9C00D9
:1006BC00B3EBD10F24BFA3EBD10340EADC001B0149
:1006CC0018BF5FEA1C1CE0D1FD2A3FF650AF8B42ED
:1006DC0040EBC25008BF20F0010070470CF0004CFA
:1006EC004CEA50207F32C2BFD2F1FF0340EAC25025
:1006FC00704740F400004FF00003013A37E792F0E6
:10070C00000F00F0004C02BF400010F4000F013A43
:10071C00F9D040EA0C0093F0000F01F0004C02BF3E
:10072C00490011F4000F013BF9D041EA0C0195E7A7
:10073C000CEAD15392EA0C0F08D142027FF47DAF40
:10074C0093EA0C0F7FF470AF084676E793EA0C0F30
:10075C0004D14B023FF44CAF08466EE730F0004C2E
:10076C0018BF31F0004CCAD130F000427FF45CAFBE
:10077C0031F000437FF43CAF5FE700BF42000ED284
:10078C00B2F1FE4F0BD34FF09E03B3EB126209D4C0
:10079C004FEA002343F0004323FA02F070474FF076
:1007AC000000704712F1610F01D1420202D14FF0EB
:1007BC00FF3070474FF00000704700BF10B5054C7C
:1007CC00237833B9044B13B10448AFF300800123F1
:1007DC00237010BD1400002400000000781D0008D8
:1007EC0008B5034B1BB103490348AFF3008008BDA8
:1007FC000000000018000024781D00082DE9F047C7
:10080C008AB005AD002405940694079408940994C5
:10081C00504BD3F8E02042F01002C3F8E020D3F89C
:10082C00E02002F010020092009AD3F8E02042F08F
:10083C000402C3F8E020D3F8E02002F00402019295
:10084C00019AD3F8E02042F08002C3F8E020D3F8FC
:10085C00E02002F080020292029AD3F8E02042F0EB
:10086C000102C3F8E020D3F8E02002F00102039269
:10087C00039AD3F8E02042F00202C3F8E020D3F848
:10088C00E03003F002030493049BDFF8CC800122D8
:10089C002021404600F0F6FBDFF8C0900122202119
:1008AC00484600F0EFFB182305934FF4041306930E
:1008BC00012607962946404600F0D6FA4FF0200A4A
:1008CC00CDF814A0069607940227089729464046AF
:1008DC0000F0CAFA4FF4005305934FF48818CDF882
:1008EC001880079429461E4800F0BEFA0596CDF8EC
:1008FC001880079729461B4800F0B6FACDF814A0CB
:10090C000696079408972946484600F0ADFA224609
:10091C002146062000F036FA062000F043FA224663
:10092C002146092000F02EFA092000F03BFA22465D
:10093C0021460A2000F026FA0A2000F033FA22465B
:10094C002146282000F01EFA282000F02BFA0AB0CD
:10095C00BDE8F08700440258001002580004025809
:10096C00000802580000025830B585B000240094ED
:10097C0001940294039400F02DFA01238DF80030B9
:10098C008DF8014001941F228DF8082087228DF8E4
:10099C0009208DF80A408DF80B408DF80C308DF83D
:1009AC000D308DF80E408DF80F40684600F030FA8F
:1009BC00042000F01DFA05B030BD000008B5082871
:1009CC0008D010280BD0012803D12021084800F0B2
:1009DC005FFB08BD2021074800F05AFBF9E72021F6
:1009EC00034800F055FB2021024800F051FBF0E7D2
:1009FC00000402580010025872B6FEE700B59DB014
:100A0C004C22002109A801F0D9F82022002101A8CC
:100A1C0001F0D4F8022000F053FB00230093214B8B
:100A2C009A6922F440429A619B6903F44043009313
:100A3C00009B1C4B9B6913F4005FFAD002230993B3
:100A4C0001210C9140220D9212930022139204204A
:100A5C001490222015901691179318930C23199328
:100A6C001A924FF440631B9309A800F053FBA8B9EA
:100A7C003F23019303210291002303930823049342
:100A8C004023059306934FF480620792089301A8C4
:100A9C0000F044FF20B91DB05DF804FBFFF7ACFF7C
:100AAC00FFF7AAFF0048025808B5FFF75DFF00F0FA
:100ABC00D7F8FFF7A3FFFFF7A1FEFEE782B0074BC5
:100ACC00D3F8F42042F00202C3F8F420D3F8F43047
:100ADC0003F002030193019B02B0704700440258DB
:100AEC00FEE7FEE7FEE7FEE7FEE77047704770475C
:100AFC0008B500F0E3F808BD08B5012000F0D1FA04
:100B0C0008BD08B5082000F0CCFA08BD08B51020C7
:100B1C0000F0C7FA08BD08B54FF4005000F0C1FA58
:100B2C0008BD00001E4B1B6803F00F03062B06D8F4
:100B3C001B4A136823F00F0343F007031360194B90
:100B4C001A6842F001021A6000221A611968164AEA
:100B5C000A401A60124B1B6813F0080F06D0104A9B
:100B6C00136823F00F0343F0070313600D4B0022AF
:100B7C009A61DA611A620D4999620D49D9620D497F
:100B8C0019635A639963DA6319645A64196821F416
:100B9C00802119601A66084B43F2D2021A60704722
:100BAC0000200052004402587FEDF6EA00020202D7
:100BBC000000FF018002010100400052DFF834D038
:100BCC00FFF7B0FF0C480D490D4A002302E0D45842
:100BDC00C4500433C4188C42F9D30A4A0A4C00237B
:100BEC0001E013600432A242FBD301F035F8FFF7A9
:100BFC005BFF704700000524000000241400002453
:100C0C00AC1D000814000024CC010024FEE70000F9
:100C1C00104B1B780BB90120704710B504464FF4EC
:100C2C007A70B0FBF3F30C4A1068B0FBF3F000F0F1
:100C3C00BDF868B90F2C01D901200AE00022214629
:100C4C004FF0FF3000F09EF8044B1C60002000E0D9
:100C5C00012010BD08000024040000240C00002416
:100C6C0010B5032000F07CF800F046FD0F498B69AD
:100C7C00C3F303230E4AD35C03F01F03D8408B69E4
:100C8C0003F00F03D35C03F01F0320FA03F3094AAC
:100C9C001360094B18600F20FFF7BAFF10B1012445
:100CAC00204610BD0446FFF709FFF9E7004402583F
:100CBC00901D00080000002404000024034B1B7846
:100CCC00034A11680B441360704700BF08000024EE
:100CDC0030000024014B1868704700BF300000241E
:100CEC00002807DB00F01F02400901239340024A51
:100CFC0042F82030704700BF00E100E0002804DB20
:100D0C000901C9B2044B1954704700F00F000901D6
:100D1C00C9B2024B1954704700E400E014ED00E036
:100D2C0000B500F00700C0F1070CBCF1040F28BFA0
:100D3C004FF0040C031D062B0FD9C31E4FF0FF3EC2
:100D4C000EFA0CF021EA000199400EFA03FE22EA99
:100D5C000E0241EA02005DF804FB0023EEE70000FE
:100D6C000649CB6823F4E0631B041B0C000200F45F
:100D7C00E0600343024A1A43CA60704700ED00E08A
:100D8C000000FA0510B50446054BD868C0F30220E4
:100D9C00FFF7C6FF01462046FFF7B0FF10BD00BFAE
:100DAC0000ED00E008B5FFF79BFF08BD0138B0F17E
:100DBC00807F0BD24FF0E0235861054AF02182F876
:100DCC0023100020986107221A6170470120704798
:100DDC0000ED00E0BFF35F8F044B5A6A22F48032BF
:100DEC005A620022C3F89420704700BF00ED00E067
:100DFC0040F00100054BC3F894005A6A42F480326B
:100E0C005A62BFF34F8FBFF36F8F704700ED00E056
:100E1C004378144AC2F89830D2F8A03023F001037A
:100E2C00C2F8A0304368C2F89C30017BC37A1B0621
:100E3C0043EA0173817A43EAC143417B43EA81432C
:100E4C00817B43EA4143C17B43EA0143417A43EA54
:100E5C000123017A43EA410301780B43C2F8A03025
:100E6C00704700BF00ED00E070B582B000236EE06B
:100E7C0085685E000324B44025EA0405CC68B440C0
:100E8C002C438460456825EA0C054C68C4F30014B7
:100E9C009C402C4344606DE0DD08083550F825403B
:100EAC0003F0070C4FEA8C0C4FF00F0E0EFA0CFEF1
:100EBC0024EA0E0E0C6904FA0CF444EA0E0440F811
:100ECC0025406FE0092400E0002404FA0EF42C43C2
:100EDC000CF1020C684D45F82C404FF0B0442568DD
:100EEC00D44325EA0206D1F804C01CF4801F01D0BB
:100EFC0042EA05064FF0B0452E606D6804EA05061F
:100F0C00D1F804C01CF4001F01D042EA05064FF0D2
:100F1C00B0456E60D5F8845004EA0506D1F804C0DB
:100F2C001CF4003F01D042EA05064FF0B045C5F86D
:100F3C008460D5F880502C404E6816F4803F01D068
:100F4C0042EA05044FF0B042C2F8804001330A680F
:100F5C0032FA03F400F08D804FF0010C0CFA03FC14
:100F6C001CEA0202F2D04C6804F00304013C012C90
:100F7C007FF67EAF4C6804F00304032C0CD0C468DD
:100F8C005D004FF0030C0CFA05FC24EA0C0C8C6889
:100F9C00AC4044EA0C04C4604C6804F00304022C1A
:100FAC003FF47AAF04684FEA430E4FF0030C0CFA8F
:100FBC000EFC24EA0C0C4C6804F0030404FA0EF446
:100FCC0044EA0C0404604C6814F4403FBED02B4C33
:100FDC00D4F8F45045F00205C4F8F450D4F8F440B9
:100FEC0004F002040194019C4FEA930C0CF10205ED
:100FFC00214C54F8255003F0030E4FEA8E0E0F24AB
:10100C0004FA0EF425EA04051D4CA0423FF45CAF33
:10101C0004F58064A0421ED004F58064A0421CD06C
:10102C0004F58064A0421AD004F58064A04218D064
:10103C0004F58064A04216D004F58064A04214D05C
:10104C0004F58064A04212D004F50064A0423FF481
:10105C0039AF0A2439E7012437E7022435E70324A2
:10106C0033E7042431E705242FE706242DE7072472
:10107C002BE702B070BD00BF0004005800440258BA
:10108C00000002580AB18161704709048161704700
:10109C00436901EA030221EA030141EA0241816149
:1010AC00704708B54FF0B043D3F88830034200D1F5
:1010BC0008BD4FF0B043C3F88800FFF77FFCF7E79B
:1010CC00134BDB6813F0040F07D1114BDB6803F0F3
:1010DC00070383421AD00120704710B50C4AD3681D
:1010EC0023F007030343D360FFF7F4FD0446084BDA
:1010FC005B6813F4005F07D1FFF7ECFD001BB0F544
:10110C007A7FF4D9012000E0002010BD0020704748
:10111C0000480258002800F0D58238B50446036810
:10112C0013F0010F25D0A04A136903F03803926A1B
:10113C00102B15D0182B0FD06368B3F5803F3FD020
:10114C00002B53D1984B1A6822F480321A601A681B
:10115C0022F480221A6038E002F00302022AEBD15A
:10116C00914B1B6813F4003F03D06368002B00F015
:10117C00AB82236813F0020F00F088808A4A13694F
:10118C00926A13F038035AD0182B55D0E368002B11
:10119C0000F0A98084490A6822F0190213430B60FD
:1011AC00FFF798FD0546804B1B6813F0040F40F0C9
:1011BC009180FFF78FFD401B0228F4D903208AE2AF
:1011CC00794A136843F48033136063682BB3FFF7D9
:1011DC0081FD0546744B1B6813F4003FC9D1FFF722
:1011EC0079FD401B6428F5D9032074E2B3F5A02FD8
:1011FC0009D06D4B1A6822F480321A601A6822F4F6
:10120C0080221A60E1E7684B1A6842F480221A6067
:10121C001A6842F480321A60D7E7FFF75BFD054687
:10122C00614B1B6813F4003FA3D0FFF753FD401B29
:10123C006428F5D903204EE212F0030FA6D15A4BC5
:10124C001B6813F0040F03D0E368002B00F03E8200
:10125C00554A136823F01903E1680B431360FFF739
:10126C0039FD0546504B1B6813F0040F06D1FFF7F0
:10127C0031FD401B0228F5D903202CE24A4A536861
:10128C0023F0FE43216943EA01635360236813F0A2
:10129C00100F51D0444A136903F03803926A082B9B
:1012AC0039D0182B33D0E369002B69D03E4A136830
:1012BC0043F080031360FFF70DFD05463A4B1B68A6
:1012CC0013F4807F53D1FFF705FD401B0228F5D99D
:1012DC00032000E2344A536823F0FE43216943EAB9
:1012EC0001635360D2E7304A136823F001031360A3
:1012FC00FFF7F0FC05462C4B1B6813F0040FC5D010
:10130C00FFF7E8FC401B0228F5D90320E3E102F0CB
:10131C000302012AC7D1244B1B6813F4807F03D02E
:10132C00E369802B40F0D4811F4AD36823F07C53AF
:10133C00216A43EA0163D360236813F0080F49D094
:10134C006369002B32D0184A536F43F00103536783
:10135C00FFF7C0FC0546144B5B6F13F0020F39D13D
:10136C00FFF7B8FC401B0228F5D90320B3E10E4A65
:10137C00D36823F07C53216A43EA0163D360DBE733
:10138C00094A136823F080031360FFF7A3FC05469A
:10139C00054B1B6813F4807FCED0FFF79BFC401BE2
:1013AC000228F5D9032096E1004402589D4A536F58
:1013BC0023F001035367FFF78DFC0546994B5B6FD8
:1013CC0013F0020F06D0FFF785FC401B0228F5D95D
:1013DC00032080E1236813F0200F29D0A3699BB16F
:1013EC00904A136843F480531360FFF773FC05466F
:1013FC008C4B1B6813F4005F1AD1FFF76BFC401B7E
:10140C000228F5D9032066E1864A136823F4805339
:10141C001360FFF75FFC0546824B1B6813F4005FFB
:10142C0006D0FFF757FC401B0228F5D9032052E1E8
:10143C00236813F0040F21D1636A002B00F04A815A
:10144C00784A126902F03802182A00F0F180022B57
:10145C0075D0744A136823F080731360FFF73AFC5D
:10146C000446704B1B6813F0007F00F0D880FFF728
:10147C0031FC001B0228F4D903202CE16A4A1368C2
:10148C0043F480731360FFF725FC0546664B1B681D
:10149C0013F4807F06D1FFF71DFC401B6428F5D99F
:1014AC00032018E1A368012B0AD00BBB5D4B1A6F0C
:1014BC0022F001021A671A6F22F004021A6704E084
:1014CC00584A136F43F001031367A36833B3FFF754
:1014DC0001FC0546534B1B6F13F0020FACD1FFF709
:1014EC00F9FB401B41F288339842F3D90320F2E018
:1014FC00052B09D04B4B1A6F22F001021A671A6F99
:10150C0022F004021A67E0E7464B1A6F42F004021D
:10151C001A671A6F42F001021A67D6E7FFF7DAFB77
:10152C000546404B1B6F13F0020F85D0FFF7D2FB23
:10153C00401B41F288339842F3D90320CBE0394A5F
:10154C00136823F080731360FFF7C4FB0546354B1B
:10155C001B6813F0007F06D0FFF7BCFB401B022872
:10156C00F5D90320B7E02F4B996A304A0A40A16A9B
:10157C00E06A41EA00110A439A62226B013AC2F313
:10158C000802616B0139490289B20A43A16B013926
:10159C00090401F4FE010A43E16B0139090601F06B
:1015AC00FE410A431A63DA6A22F00102DA625A6BCC
:1015BC006FF3CF02A16C42EAC1025A63DA6A22F0DD
:1015CC000C02216C0A43DA62DA6A22F00202616CC4
:1015DC000A43DA62DA6A42F48032DA62DA6A42F494
:1015EC000032DA62DA6A42F48022DA62DA6A42F0B3
:1015FC000102DA621A6842F080721A60FFF76AFB25
:10160C000446084B1B6813F0007F06D1FFF762FB02
:10161C00001B0228F5D903205DE000205BE00020D0
:10162C0059E000BF00440258004802580CFCFFFF70
:10163C0030498A6A086B012B4ED002F00303A16A71
:10164C008B424BD1C2F30512E36A9A4248D1C0F3E4
:10165C000802236B013B9A4244D1C0F34622636BD0
:10166C00013B9A4240D1C0F30642A36B013B9A4224
:10167C003CD1C0F30660E36B013B984238D11D4B63
:10168C005B6BC3F3CC03A26C9A4201D1002022E025
:10169C00184AD36A23F00103D362FFF71BFB0546FC
:1016AC00FFF718FBA842FBD0124A536B6FF3CF0322
:1016BC00A16C43EAC1035363D36A43F00103D362C1
:1016CC00002008E001207047012004E0012002E026
:1016DC00012000E0002038BD0120FCE70120FAE7E2
:1016EC000120F8E70120F6E70120F4E70120F2E7FA
:1016FC000120F0E700440258F8B5814B1B6903F058
:10170C003803102B00F0F480182B0FD0002B40F076
:10171C00F2807B4B1B6813F0200F00F0EE80784BAF
:10172C001B68C3F3C103774CDC40E2E0744B9D6A49
:10173C0005F003059C6AC4F30514D86A00F0010097
:10174C005B6BC3F3CC0303FB00F0FEF76FFE0646A6
:10175C00002C00F0CE80012D56D0022D00F084809C
:10176C00002D40F0A380664B1B6813F0200F29D08E
:10177C00634F3B68C3F3C1036248D840FEF756FE83
:10178C0005462046FEF752FE01462846FEF75AFF54
:10179C000446386BC0F30800FEF748FE05464FF0D0
:1017AC0064513046FEF79AFE01462846FEF78EFD40
:1017BC004FF07E51FEF78AFD01462046FEF78EFE65
:1017CC00044642E02046FEF731FE01464E48FEF745
:1017DC0039FF04464A4B186BC0F30800FEF726FE8F
:1017EC0005464FF064513046FEF778FE0146284618
:1017FC00FEF76CFD4FF07E51FEF768FD014620466A
:10180C00FEF76CFE044620E02046FEF70FFE014674
:10181C003E48FEF717FF0446394B186BC0F308001F
:10182C00FEF704FE05464FF064513046FEF756FEB7
:10183C0001462846FEF74AFD4FF07E51FEF746FD65
:10184C0001462046FEF74AFE04462D4B1B6BC3F3A4
:10185C004623581CFEF7EAFD01462046FEF7F2FE31
:10186C00FEF78CFF044644E02046FEF7DFFD014600
:10187C002748FEF7E7FE0446214B186BC0F308001F
:10188C00FEF7D4FD05464FF064513046FEF726FEB8
:10189C0001462846FEF71AFD4FF07E51FEF716FD65
:1018AC0001462046FEF71AFE0446CEE72046FEF718
:1018BC00BDFD01461548FEF7C5FE0446104B186BDE
:1018CC00C0F30800FEF7B2FD05464FF064513046F8
:1018DC00FEF704FE01462846FEF7F8FC4FF07E5159
:1018EC00FEF7F4FC01462046FEF7F8FD0446ACE793
:1018FC00084C2046F8BD084CFBE7024CF9E700BF4A
:10190C00004402580090D0030024744C0024744A04
:10191C0020BCBE4B40787D0100093D00002800F042
:10192C00328170B50D4604469B4B1B6803F00F03C8
:10193C008B420BD2984A136823F00F030B431360AE
:10194C00136803F00F038B4240F01F81236813F0E0
:10195C00040F0CD02269914B9B6903F070039A42DF
:10196C0005D98E498B6923F070031A438A61236869
:10197C0013F0080F0CD06269884BDB6903F070031D
:10198C009A4205D98549CB6923F070031A43CA6181
:10199C00236813F0100F0CD0A269804BDB6903F4A1
:1019AC00E0639A4205D97D49CB6923F4E0631A437D
:1019BC00CA61236813F0200F0CD0E269774B1B6AC5
:1019CC0003F070039A4205D974490B6A23F0700333
:1019DC001A430A62236813F0020F0CD0E2686F4BB3
:1019EC009B6903F00F039A4205D96C498B6923F06C
:1019FC000F031A438A61236813F0010F41D0674A21
:101A0C00936923F47063A1680B4393616368022BA1
:101A1C000AD0032B27D0012B2CD0604A126812F06D
:101A2C00040F06D10120ADE0126812F4003F00F063
:101A3C00AE805A490A6922F0070213430B61FFF783
:101A4C0049F90646554B1B6903F038036268B3EB42
:101A5C00C20F16D0FFF73EF9801B41F28833984233
:101A6C00F0D903208EE04D4A126812F0007FE0D1CD
:101A7C00012087E0494A126812F4807FD9D10120F5
:101A8C0080E0236813F0020F0CD0E268434B9B6993
:101A9C0003F00F039A4205D240498B6923F00F03E0
:101AAC001A438A613C4B1B6803F00F03AB420AD903
:101ABC00394A136823F00F032B431360136803F0A8
:101ACC000F03AB4265D1236813F0040F0CD02269CD
:101ADC00324B9B6903F070039A4205D22F498B69F4
:101AEC0023F070031A438A61236813F0080F0CD09B
:101AFC0062692A4BDB6903F070039A4205D22749CD
:101B0C00CB6923F070031A43CA61236813F0100FDA
:101B1C000CD0A269214BDB6903F4E0639A4205D235
:101B2C001E49CB6923F4E0631A43CA61236813F09E
:101B3C00200F0CD0E269194B1B6A03F070039A4218
:101B4C0005D216490B6A23F070031A430A62FFF799
:101B5C00D3FD12498B69C3F30323114AD35C03F001
:101B6C001F03D8408B6903F00F03D35C03F01F03F2
:101B7C0020FA03F30B4A13600B4B18600B4B1868DD
:101B8C00FFF746F870BD012070470120FAE70120ED
:101B9C00F8E70120F6E700BF00200052004402588D
:101BAC00901D000800000024040000240C000024F8
:101BBC00002301461A46184600F08EB8830730B54C
:101BCC0046D08418844604E003F8011B9D0704D01A
:101BDC009C46A4456346F7D130BD013A0244A2EBC2
:101BEC000C02032A29D9CCB204EB04240F2A04EBEF
:101BFC0004442FD9A2F1100C2CF00F0C03F110059A
:101C0C00AC44C3E90044C3E9024410336345F8D142
:101C1C0012F00C0F02F00F0E18D02EF0030C9C4497
:101C2C00AEF104051A4642F8044B6245FBD125F08F
:101C3C00030404330EF003022344002ACCD0C9B2AF
:101C4C001A4403F8011B9342FBD130BD7246F4E7F2
:101C5C000346C6E79646E0E770B50F4B0F4DAB4217
:101C6C00A3EB050607D0B610002455F8043B01344D
:101C7C009847A642F9D800F079F8094D094B5E1B3C
:101C8C00AB424FEAA60606D0002455F8043B0134BB
:101C9C009847A642F9D870BDA01D0008A01D0008E9
:101CAC00A01D0008A81D000838B5074D074C2C1BBB
:101CBC00A41005D0013C55F8043D9847002CF9D1EF
:101CCC00BDE8384000F058B8AC1D0008A81D00084D
:101CDC00704700BF704700BF2DE9F8431B4D064607
:101CEC00286898460F469146FFF7F2FF184B1C6880
:101CFC001CB3286865681F2D22DC4EB96B1C02359D
:101D0C00636044F82570FFF7E5FF0020BDE8F88319
:101D1C0004EB85010123C1F88890D4F88821AB40ED
:101D2C001A43022EC4F88821C1F80881E6D1D4F8F0
:101D3C008C211A43C4F88C21E0E7064C1C60D8E7D0
:101D4C00FFF7C8FF4FF0FF30E0E700BF10000024A2
:101D5C00C801002438000024024B13B10248FFF7DD
:101D6C0027BF704700000000B51C0008F8B500BF85
:101D7C00F8BC08BC9E467047F8B500BFF8BC08BC60
:041D8C009E467047B8
:101D90000000000001020304010203040607080911
:081DA000651D0008ED070008B5
:041DA800C90700085F
:101DAC000090D0030090D003010000001000000050
:041DBC0034000024CB
:0400000508000BC91B
:00000001FF
