:020000040800F2
:1000000070060020CD0100080F0C00083D0B000811
:100010000D0C0008D3020008770C00080000000057
:10002000000000000000000000000000130C0008A9
:10003000D502000800000000110C0008150C000893
:10004000E7010008E7010008E7010008E7010008F0
:10005000E7010008E7010008E7010008D7020008EF
:10006000E7010008DD020008E7010008E7010008D9
:10007000E7010008E7010008E7010008E7010008C0
:10008000E7010008E7010008E7010008E7010008B0
:10009000E7010008E7010008E7010008E3020008A3
:1000A000E7010008E7010008E7010008E701000890
:1000B000E7010008E7010008E7010008E701000880
:1000C000E7010008E7010008E7010008E701000870
:1000D000E7010008E7010008E7010008E701000860
:1000E000E7010008E7010008E7010008E701000850
:1000F000E7010008E7010008E7010008E701000840
:10010000E7010008E7010008E7010008E70100082F
:10011000E7010008E7010008E7010008E70100081F
:10012000E7010008E7010008E7010008E70100080F
:1001300000F002F800F03AF80AA090E8000C8244BF
:100140008344AAF10107DA4501D100F02FF8AFF29C
:10015000090EBAE80F0013F0010F18BFFB1A43F0A5
:1001600001031847640B0000840B0000103A24BF01
:1001700078C878C1FAD8520724BF30C830C144BF0C
:1001800004680C607047000000230024002500264E
:10019000103A28BF78C1FBD8520728BF30C148BFEA
:1001A0000B6070471FB51FBD10B510BD00F058F8AB
:1001B0001146FFF7F7FF00F06FFD00F076F803B48B
:1001C000FFF7F2FF03BC00F07DF80000094880470C
:1001D00009480047FEE7FEE7FEE7FEE7FEE7FEE729
:1001E000FEE7FEE7FEE7FEE704480549054A064B41
:1001F00070470000750C00083101000870000020F5
:100200007006002070020020700200204FF00002F3
:1002100000B5134694469646203922BFA0E80C50FC
:10022000A0E80C50B1F12001BFF4F7AF090728BFD7
:10023000A0E80C5048BF0CC05DF804EB890028BF53
:1002400040F8042B08BF704748BF20F8022B11F07C
:10025000804F18BF00F8012B7047704770477047F8
:10026000754600F02BF8AE4605006946534620F06F
:100270000700854618B020B5FFF7B6FFBDE820405F
:100280004FF000064FF000074FF000084FF0000B52
:1002900021F00701AC46ACE8C009ACE8C009ACE805
:1002A000C009ACE8C0098D46704710B50446AFF3ED
:1002B00000802046BDE81040FFF781BF004870472E
:1002C0001000002001491820ABBEFEE72600020006
:1002D0007047FEE77047022000F01CB8082000F0CD
:1002E00019B8202000F016B870B5094D044608284A
:1002F00005D04021284600F015F9022C06D02846EA
:10030000BDE870404FF4807100F00CB970BD000082
:1003100000100140044910B50A68024202D008608A
:10032000FFF7E2FF10BD0000140401402DE9F84F73
:10033000DFF8C8910024A9F1040B23460F2709F127
:10034000040AABF1040ED1E00125A54006EA05023E
:10035000AA4276D1DFF8A8C14E68A6EB0C08664524
:100360002BD00DDC032E34D005DC36B3012E19D092
:10037000022E2FD11BE0112E16D0122E2AD119E0F9
:10038000B8F5881F19D006DCB8F5803F15D0B8F550
:10039000801F1FD111E0B8F5001F0ED0B8F5041F63
:1003A00018D10AE0CB6815E0CB681B1D12E0CB68C2
:1003B00008330FE0CB680C330CE08B682BB1012BBA
:1003C0004FF0080303D0456104E0042302E0056117
:1003D00000E00023FF2A01D8064601E000F10406F0
:1003E0004FEA840501D9A5F12005D6F8008007FA67
:1003F00005FC28EA0C0803FA05F548EA0508C6F8E2
:1004000000804D68ED0070D53E4DAE6946F00106A6
:10041000AE61AD6924F0030605F0010500953A4D83
:1004200006EB050CDCF80850A607360F07FA06F8AD
:1004300025EA0805DFF8D480404503D14FF00008D5
:1004400025E052E0DFF8C880404502D14FF00108B6
:100450001DE0DFF8C080404502D14FF0020816E0F1
:10046000DFF8B480404502D14FF003080FE0DFF819
:10047000AC80404502D14FF0040808E0DFF8A080CE
:10048000404502D14FF0050801E04FF0060808FA98
:1004900006F848EA0508CCF808804D68D9F80060ED
:1004A000ED024D4601D5164300E096432E604D689F
:1004B000DAF80060AD02554601D5164300E09643D8
:1004C0002E604D68DBF80060AD035D4601D5164334
:1004D00000E096432E604D68DEF80060ED0375463F
:1004E00001D5164300E096432E60641C0A68164648
:1004F000E2407FF429AFBDE8F88F00000804014016
:1005000000001110001002400000014000080140EE
:10051000000C01400010014000140140001801408F
:10052000001C0140C26821EA02030A4043EA02417A
:10053000016170470AB1016170470904FBE70000DF
:100540000148806870470000000000200248816870
:10055000027811448160704700000020074810B500
:10056000016841F010010160032000F075F80F20D0
:1005700000F006F800F024F8002010BD0020024032
:1005800070B50D4D04464FF47A712878B1FBF0F048
:100590000A490968B1FBF0F000F0BCFA48B9102C28
:1005A00007D200222146501E00F036F800206C6071
:1005B00070BD012070BD0000000000200C00002074
:1005C0000C4808B5816941F001018161816901F040
:1005D00001010091C16941F08051C161C06900F021
:1005E000805000900448416821F0E06141F0806152
:1005F000416008BD0010024000000140002809DBF6
:1006000000F01F02012191404009800000F1E0202C
:10061000C0F8001170470000F0B40E4B1B680C4688
:10062000C3F30223C3F10705042D00D90425191DC6
:10063000072901D2002300E0DB1E012606FA05F19E
:10064000491E214099409E40761E16403143F0BC21
:1006500000F012BB0CED00E0064900F0070208684C
:100660004FF6FF03184040EA0220034A1043086097
:10067000704700000CED00E00000FA052DE9F0479E
:100680000F46050061D0434E306800F00700B842C5
:1006900009D2306820F0070038433060306800F03D
:1006A0000700B84251D128683B4C810712D540075A
:1006B00003D5606840F4E06060602878000703D5E7
:1006C000606840F4605060606068A96820F0F000E5
:1006D000084360602878C00728D06868012810D0D7
:1006E0002168022810D0890700292EDA616821F0DC
:1006F000030101436160FFF723FF804641F288391F
:100700000DE021688903EFE78901EDE7FFF718FFA6
:10071000A0EB0801494502D90320BDE8F0876068D5
:10072000696800F00C00B0EB810FEFD1306800F089
:100730000700B8420BD9306820F00700384330601A
:10074000306800F00700B84201D00120E5E72878C2
:10075000400705D56068E96820F4E0600843606000
:100760002878000706D56068296920F4605040EABF
:10077000C100606000F018F86168084AC1F3031115
:10078000515CC8400649086006480068FFF7F8FE5B
:100790000020C2E70020024000100240B80C000810
:1007A0000C000020040000200E4A51680E4801F0A1
:1007B0000C03042B11D0082B0FD10C48C1F3834339
:1007C000C903C05C0AD55168084AC1F34041921E72
:1007D000515C054A5043B0FBF1F07047044948436F
:1007E000704700000010024000127A00A80C0008B8
:1007F00000093D002DE9F84F040070D02078C04D6D
:10080000C00749D06868C0F38100012807D0686834
:10081000C0F38100022809D16868C00306D52868A2
:10082000800339D560680028E7D035E06068B0F50E
:10083000803F0BD010B1B0F5A02F11D0286820F464
:1008400080302860286820F4802002E0286840F486
:1008500080302860606890B1FFF772FE06460AE0BB
:10086000286840F480202860F0E700BFFFF768FEAA
:10087000801B642873D828688003F7D50CE0FFF745
:100880005FFE064605E000BFFFF75AFE801B6428A6
:10089000F0D828688003F7D420789A4E80074FF06C
:1008A00001094FF0000839D5686810F00C0F07D027
:1008B0006868C0F38100022809D16868C00306D4C3
:1008C0002868800714D52069012808D110E0206924
:1008D000B0B1C6F80090FFF733FE074605E00AE125
:1008E000FFF72EFEC01B0228C4D828688007F7D562
:1008F0002868616920F0F80040EAC10028600DE036
:10090000C6F80080FFF71CFE074604E0FFF718FE5C
:10091000C01B022823D828688007F7D42078000756
:100920002CD57948A169D9B1C0F80090FFF708FE2D
:10093000074604E0FFF704FEC01B02280FD8686AD0
:100940008007F7D571484FF4FA510068B0FBF1F019
:10095000009000BF0098411E0091FAD20EE080E0A6
:10096000C0F80080FFF7ECFD074604E0FFF7E8FD64
:10097000C01B022875D8686A8007F7D42078400722
:1009800060D5E8690027C00008D4E86940F08050CD
:10099000E861E869012700F0805000905C48016838
:1009A000C90513D40168834641F480710160FFF7E3
:1009B000C7FD824606E000BFFFF7C2FDA0EB0A00BC
:1009C00064284ED8DBF80000C005F5D5E0680128A2
:1009D0000AD008B1052813D0286A20F00100286247
:1009E000286A20F0040002E0286A40F00100286232
:1009F000E06841F2883B98B1FFF7A2FD82460BE028
:100A0000286A40F004002862EEE700BFFFF798FD77
:100A1000A0EB0A0159455AD8286A8007F6D50CE0A0
:100A2000FFF78EFD824605E0FFF78AFDA0EB0A0185
:100A300059454CD8286A8007F6D41FB1E86920F0E0
:100A40008050E861E06988B36968C1F381010229D7
:100A500044D00228C6F8608004D0FFF771FD044638
:100A600038E034E0FFF76CFD074604E0FFF768FD6F
:100A7000C01B02282BD828688001F7D4206AB0F563
:100A8000803F05D16868A16820F4003008436860A1
:100A9000D4E908010843696821F4741108436860C7
:100AA000C6F86090FFF74CFD044606E025E000BF65
:100AB000FFF746FD001B022809D828688001F7D5FA
:100AC0001BE000BFFFF73CFD001B022802D90320FA
:100AD000BDE8F88F28688001F4D40EE00128F7D033
:100AE0006868226A00F48031914204D1616A00F49E
:100AF0007010884201D00120EAE70020E8E70000FA
:100B00000010024000004242800442420C000020DB
:100B10000070004010B5401EB0F1807F01D301206D
:100B200010BD4FF0E02460610F21601700F0A4F8C1
:100B30000020A06107202061002010BDFEE700001A
:100B40002DE9F04186B000242B48009401940294D2
:100B50000394816941F004018161816901F004011C
:100B60000491816941F0100181618069DFF88C8016
:100B700000F010004FF4A076049001223146404668
:100B8000FFF7D8FC0A2000901D480125CDE901059A
:100B90001C4F69463846FFF7C9FB202000901A48D1
:100BA00001900220029069463846FFF7BFFB032000
:100BB000CDE90240CDE9006569464046FFF7B6FB46
:100BC000002211460720FFF727FD0720FFF716FD3B
:100BD000002211460920FFF71FFD0920FFF70EFD37
:100BE000002211461720FFF717FD1720FFF706FD1B
:100BF00006B0BDE8F0810000001002400010014086
:100C0000000021100008014000001110FEE7FEE77F
:100C100070477047FFF79ABC30B58FB028216846FF
:100C2000FFF7F4FA14210AA8FFF7F0FA02250120D1
:100C3000049000951020059000244FF46010CDE939
:100C4000084007956846FFF7D5FD08B172B6FEE784
:100C50000F20CDE90A054FF48060CDE90C40022158
:100C60000AA80E94FFF70AFD002801D072B6FEE72D
:100C70000FB030BD7047FEE70907090E002804DBFE
:100C800000F1E02080F80014704700F00F0000F140
:100C9000E02080F8141D7047FFF760FCFFF7BCFFF1
:100CA000FFF74EFFFEE701020203040506070809ED
:100CB0000A0B0C0D0E0F10100000000000000000C9
:100CC0000102030406070809E80C000800000020E0
:100CD000100000006C010008F80C00081000002053
:100CE00060060000880100080100000010000000FC
:080CF000000000000024F400E4
:0400000508000131BD
:00000001FF
