:020000040800F2
:10000000C8060020CD0100089F0E00086B0D0008F7
:100010009D0E0008D30200083D10000800000000FB
:10002000000000000000000000000000A30E000817
:10003000D502000800000000A10E0008A50E00086F
:10004000E7010008E7010008E7010008E7010008F0
:10005000E7010008E7010008E7010008D7020008EF
:10006000E7010008DD020008E7010008E7010008D9
:10007000E7010008E7010008E7010008E7010008C0
:10008000E7010008E7010008E7010008E7010008B0
:10009000E7010008E7010008E7010008E3020008A3
:1000A000E7010008E7010008E7010008E701000890
:1000B000E7010008E7010008E7010008E701000880
:1000C000E7010008E7010008E7010008E701000870
:1000D000E7010008E7010008E7010008E701000860
:1000E000E7010008E7010008E7010008E701000850
:1000F000E7010008E7010008E7010008E701000840
:10010000E7010008E7010008E7010008E70100082F
:10011000E7010008E7010008E7010008E70100081F
:10012000E7010008E7010008E7010008E70100080F
:1001300000F002F800F03AF80AA090E8000C8244BF
:100140008344AAF10107DA4501D100F02FF8AFF29C
:10015000090EBAE80F0013F0010F18BFFB1A43F0A5
:1001600001031847A80F0000C80F0000103A24BF71
:1001700078C878C1FAD8520724BF30C830C144BF0C
:1001800004680C607047000000230024002500264E
:10019000103A28BF78C1FBD8520728BF30C148BFEA
:1001A0000B6070471FB51FBD10B510BD00F058F8AB
:1001B0001146FFF7F7FF00F053FF00F076F803B4A5
:1001C000FFF7F2FF03BC00F07DF80000094880470C
:1001D00009480047FEE7FEE7FEE7FEE7FEE7FEE729
:1001E000FEE7FEE7FEE7FEE704480549054A064B41
:1001F00070470000090F000831010008C800002006
:10020000C8060020C8020020C80200204FF00002EB
:1002100000B5134694469646203922BFA0E80C50FC
:10022000A0E80C50B1F12001BFF4F7AF090728BFD7
:10023000A0E80C5048BF0CC05DF804EB890028BF53
:1002400040F8042B08BF704748BF20F8022B11F07C
:10025000804F18BF00F8012B7047704770477047F8
:10026000754600F02BF8AE4605006946534620F06F
:100270000700854618B020B5FFF7B6FFBDE820405F
:100280004FF000064FF000074FF000084FF0000B52
:1002900021F00701AC46ACE8C009ACE8C009ACE805
:1002A000C009ACE8C0098D46704710B50446AFF3ED
:1002B00000802046BDE81040FFF781BF004870472E
:1002C0006400002001491820ABBEFEE726000200B2
:1002D0007047FEE77047022000F030B8082000F0B9
:1002E0002DB8202000F02AB872B6FEE770B504469B
:1002F00000F032F90546601C02D00448007804443E
:1003000000F02AF9401BA042FAD370BD0000002083
:1003100010B5054800F053F90A23BDE81040092242
:1003200002A1054800F0D4BC1000002046656564B9
:1003300020646F670A0000001C000020044910B50B
:100340000A68024202D00860FFF7E2FF10BD000019
:10035000140401402DE9F84FDFF8C8910024A9F1F9
:10036000040B23460F2709F1040AABF1040ED1E078
:100370000125A54006EA0502AA4276D1DFF8A8C108
:100380004E68A6EB0C0866452BD00DDC032E34D04E
:1003900005DC36B3012E19D0022E2FD11BE0112E11
:1003A00016D0122E2AD119E0B8F5881F19D006DC14
:1003B000B8F5803F15D0B8F5801F1FD111E0B8F512
:1003C000001F0ED0B8F5041F18D10AE0CB6815E065
:1003D000CB681B1D12E0CB6808330FE0CB680C33F1
:1003E0000CE08B682BB1012B4FF0080303D0456163
:1003F00004E0042302E0056100E00023FF2A01D8A5
:10040000064601E000F104064FEA840501D9A5F192
:100410002005D6F8008007FA05FC28EA0C0803FA44
:1004200005F548EA0508C6F800804D68ED0070D56E
:100430003E4DAE6946F00106AE61AD6924F003069B
:1004400005F0010500953A4D06EB050CDCF8085067
:10045000A607360F07FA06F825EA0805DFF8D48064
:10046000404503D14FF0000825E052E0DFF8C88096
:10047000404502D14FF001081DE0DFF8C080404543
:1004800002D14FF0020816E0DFF8B480404502D1F7
:100490004FF003080FE0DFF8AC80404502D14FF089
:1004A000040808E0DFF8A080404502D14FF00508BD
:1004B00001E04FF0060808FA06F848EA0508CCF80B
:1004C00008804D68D9F80060ED024D4601D516430D
:1004D00000E096432E604D68DAF80060AD025546A4
:1004E00001D5164300E096432E604D68DBF80060AE
:1004F000AD035D4601D5164300E096432E604D687E
:10050000DEF80060ED03754601D5164300E0964322
:100510002E60641C0A681646E2407FF429AFBDE8ED
:10052000F88F000008040140000011100010024084
:100530000000014000080140000C01400010014093
:100540000014014000180140001C01400AB1016183
:1005500070470904FBE7000001488068704700000D
:100560000000002070B5040011D021684CF6CC408A
:100570000860216845F255500860D4E900014160E7
:100580002168A0688860FFF7E7FF05460DE00120BD
:1005900070BD00BFFFF7E0FF401B272805D920688A
:1005A000C068800701D0032070BD2068C068800744
:1005B000F0D121684AF6AA200860002070BD0068CA
:1005C0004AF6AA21016000207047000002488168B5
:1005D000027811448160704700000020074810B580
:1005E000016841F010010160032000F075F80F2050
:1005F00000F006F800F024F8002010BD00200240B2
:1006000070B50D4D04464FF47A712878B1FBF0F0C7
:100610000A490968B1FBF0F000F0DCFA48B9102C87
:1006200007D200222146501E00F036F800206C60F0
:1006300070BD012070BD0000000000200C000020F3
:100640000C4808B5816941F001018161816901F0BF
:1006500001010091C16941F08051C161C06900F0A0
:10066000805000900448416821F0E06141F0007141
:10067000416008BD0010024000000140002809DB75
:1006800000F01F02012191404009800000F1E020AC
:10069000C0F8001170470000F0B40E4B1B680C4608
:1006A000C3F30223C3F10705042D00D90425191D46
:1006B000072901D2002300E0DB1E012606FA05F11E
:1006C000491E214099409E40761E16403143F0BCA1
:1006D00000F0B5BC0CED00E0064900F00702086828
:1006E0004FF6FF03184040EA0220034A1043086017
:1006F000704700000CED00E00000FA052DE9F0471E
:100700000F46050061D0434E306800F00700B84244
:1007100009D2306820F0070038433060306800F0BC
:100720000700B84251D128683B4C810712D54007D9
:1007300003D5606840F4E06060602878000703D566
:10074000606840F4605060606068A96820F0F00064
:10075000084360602878C00728D06868012810D056
:100760002168022810D0890700292EDA616821F05B
:10077000030101436160FFF7EFFE804641F28839D3
:100780000DE021688903EFE78901EDE7FFF7E4FE5B
:10079000A0EB0801494502D90320BDE8F087606855
:1007A000696800F00C00B0EB810FEFD1306800F009
:1007B0000700B8420BD9306820F00700384330609A
:1007C000306800F00700B84201D00120E5E7287842
:1007D000400705D56068E96820F4E0600843606080
:1007E0002878000706D56068296920F4605040EA3F
:1007F000C100606000F038F86168084AC1F3031175
:10080000515CC8400649086006480068FFF7F8FEDA
:100810000020C2E70020024000100240F210000851
:100820000C000020040000200448054900684968C5
:10083000044AC1F30221515CC84070470C000020FB
:100840000010024002110008044805490068496888
:10085000044AC1F3C221515CC84070470C0000201B
:1008600000100240021100080E4A51680E4801F0C3
:100870000C03042B11D0082B0FD10C48C1F3834378
:10088000C903C05C0AD55168084AC1F34041921EB1
:10089000515C054A5043B0FBF1F0704704494843AE
:1008A000704700000010024000127A00E2100008B9
:1008B00000093D002DE9F84F040070D02078C04DAC
:1008C000C00749D06868C0F38100012807D0686874
:1008D000C0F38100022809D16868C00306D52868E2
:1008E000800339D560680028E7D035E06068B0F54E
:1008F000803F0BD010B1B0F5A02F11D0286820F4A4
:1009000080302860286820F4802002E0286840F4C5
:1009100080302860606890B1FFF71EFE06460AE04E
:10092000286840F480202860F0E700BFFFF714FE3D
:10093000801B642873D828688003F7D50CE0FFF784
:100940000BFE064605E000BFFFF706FE801B64288D
:10095000F0D828688003F7D420789A4E80074FF0AB
:1009600001094FF0000839D5686810F00C0F07D066
:100970006868C0F38100022809D16868C00306D402
:100980002868800714D52069012808D110E0206963
:10099000B0B1C6F80090FFF7DFFD074605E00AE1B9
:1009A000FFF7DAFDC01B0228C4D828688007F7D5F6
:1009B0002868616920F0F80040EAC10028600DE075
:1009C000C6F80080FFF7C8FD074604E0FFF7C4FD46
:1009D000C01B022823D828688007F7D42078000796
:1009E0002CD57948A169D9B1C0F80090FFF7B4FDC2
:1009F000074604E0FFF7B0FDC01B02280FD8686A65
:100A00008007F7D571484FF4FA510068B0FBF1F058
:100A1000009000BF0098411E0091FAD20EE080E0E5
:100A2000C0F80080FFF798FD074604E0FFF794FD4B
:100A3000C01B022875D8686A8007F7D42078400761
:100A400060D5E8690027C00008D4E86940F080500C
:100A5000E861E869012700F0805000905C48016877
:100A6000C90513D40168834641F480710160FFF722
:100A700073FD824606E000BFFFF76EFDA0EB0A00A3
:100A800064284ED8DBF80000C005F5D5E0680128E1
:100A90000AD008B1052813D0286A20F00100286286
:100AA000286A20F0040002E0286A40F00100286271
:100AB000E06841F2883B98B1FFF74EFD82460BE0BB
:100AC000286A40F004002862EEE700BFFFF744FD0B
:100AD000A0EB0A0159455AD8286A8007F6D50CE0E0
:100AE000FFF73AFD824605E0FFF736FDA0EB0A016D
:100AF00059454CD8286A8007F6D41FB1E86920F020
:100B00008050E861E06988B36968C1F38101022916
:100B100044D00228C6F8608004D0FFF71DFD0446CB
:100B200038E034E0FFF718FD074604E0FFF714FD56
:100B3000C01B02282BD828688001F7D4206AB0F5A2
:100B4000803F05D16868A16820F4003008436860E0
:100B5000D4E908010843696821F474110843686006
:100B6000C6F86090FFF7F8FC044606E025E000BFF9
:100B7000FFF7F2FC001B022809D828688001F7D58E
:100B80001BE000BFFFF7E8FC001B022802D903208E
:100B9000BDE8F88F28688001F4D40EE00128F7D072
:100BA0006868226A00F48031914204D1616A00F4DD
:100BB0007010884201D00120EAE70020E8E7000039
:100BC0000010024000004242800442420C0000201B
:100BD0000070004010B5401EB0F1807F01D30120AD
:100BE00010BD4FF0E02460610F21601700F027FA7C
:100BF0000020A06107202061002010BD70B5040016
:100C000004D094F84100002510B106E0012070BD29
:100C100084F84050204600F023F8242084F8410056
:100C20002068C16821F40051C160204600F06EF9CF
:100C30002068016921F4904101612068416921F037
:100C40002A0141612068C16841F40051C1606564B6
:100C5000202084F8410084F842006563002070BDC4
:100C600030B585B000240094019402940394006888
:100C70001449884224D11448816941F4804181613A
:100C8000816901F480410491816941F0040181612D
:100C900080690E4D00F0040004904FF40070009045
:100CA000022001900320039069462846FFF752FB7B
:100CB0002815CDE90004694628460294FFF74AFB4F
:100CC00005B030BD0038014000100240000801406E
:100CD0002DE9F843044690F841001F4616460D469C
:100CE000202802D00220BDE8F8837DB176B1002033
:100CF0006064212084F84100FFF72EFCA684804622
:100D0000E684A068B0F5805F02D003E00120EAE746
:100D1000206910B12E4600250EE000260CE080214F
:100D2000204600F04FF9A0B9AEB116F8010B2168CA
:100D30004860E08C401EE084E08C43464FF00002A7
:100D400000970028EBD14FF04001204600F03AF91F
:100D500030B10320C7E735F8020BC0F30800E6E71F
:100D6000202084F841000020BDE7FEE72DE9F04196
:100D700086B000242B480094019402940394816966
:100D800041F004018161816901F0040104918169EC
:100D900041F0100181618069DFF88C8000F0100063
:100DA0004FF4A0760490012231464046FFF7CEFB77
:100DB0000A2000901D480125CDE901051C4F694618
:100DC0003846FFF7C7FA202000901A480190022009
:100DD000029069463846FFF7BDFA0320CDE902408C
:100DE000CDE9006569464046FFF7B4FA0022114696
:100DF0000720FFF751FC0720FFF740FC00221146B7
:100E00000920FFF749FC0920FFF738FC00221146B2
:100E10001720FFF741FC1720FFF730FC06B0BDE8B4
:100E2000F08100000010024000100140000021107D
:100E30000008014000001110094810B50749016081
:100E40000421416040F271218160FFF78BFB002893
:100E500003D0BDE81040FFF747BA10BD0030004096
:100E6000100000200C4810B50A4901604FF4E13130
:100E70004160002181600C22C160C0E904128161DF
:100E8000C161FFF7BBFE002803D0BDE81040FFF7AB
:100E90002BBA10BD003801401C000020FEE7FEE721
:100EA00070477047FFF792BB30B58FB02821684676
:100EB000FFF7ACF914210AA8FFF7A8F90A2000905F
:100EC00001200225CDE906051021CDE90401002409
:100ED0004FF46010CDE908406846FFF7EBFC08B11D
:100EE00072B6FEE70F20CDE90A054FF48060CDE928
:100EF0000C4002210AA80E94FFF700FC002801D044
:100F000072B6FEE70FB030BD7047000070B5044602
:100F100000680169E26821F44051114301612169CF
:100F2000A0680843616908432168CA6841F20C63FC
:100F30009A430243CA6020684169A26921F4407162
:100F4000114341611E492068884202D1FFF77CFCB1
:100F500001E0FFF769FC00EBC00101EB00126068E3
:100F600064218000B2FBF0F3B3FBF1F36FF01806DD
:100F70007343B2FBF0F5B2FBF0F605EB83053223C9
:100F800003EB0515B5FBF1F5B6FBF1F605F0F00541
:100F900005EB0615B2FBF0F6B2FBF0F0B0FBF1F09A
:100FA0006FF01802504306EB800003EB0010B0FB1B
:100FB000F1F0216800F00F002844886070BD000047
:100FC000003801402DE9F041984617460E46044688
:100FD000069D27E0681C25D02DB1FFF7BDFAA0EBD8
:100FE0000800A8421ED920680C3050E8001F21F4E8
:100FF000D07140E80012002AF5D12068143050E882
:10100000001F21F0010140E80012002AF5D1202044
:1010100084F8410084F84200002084F84000032056
:10102000BDE8F0812068006836EA000004D00020A6
:10103000B842CFD00020F3E70120F9E7FEE7090727
:10104000090E002804DB00F1E02080F8001470474E
:1010500000F00F0000F1E02080F8141D7047000040
:10106000FFF7BCFAFFF720FFFFF780FEFFF7E4FE73
:10107000FFF7F8FE144C012240212046FFF766FAE4
:101080000122150229462046FFF760FAC820FFF723
:101090002DF90A2305220DA10E48FFF719FE0022A3
:1010A00040212046FFF752FA002229462046FFF74A
:1010B0004DFA6420FFF71AF90A23062206A1054813
:1010C000FFF706FEF5E7000000100140496E697465
:1010D0000A0000001C0000207768696C650A0000A7
:1010E000010202030405060708090A0B0C0D0E0F86
:1010F00010100000000000000000010203040607B9
:101100000809000000000102030400002C1100087F
:1011100000000020100000006C0100083C110008D5
:1011200010000020B806000088010008010000003F
:0C11300010000000000000000024F4008B
:0400000508000131BD
:00000001FF
